:100000000C9434000C9418020C9451000C94510080
:100010000C9451000C9451000C9451000C9451001C
:100020000C9451000C9451000C9451000C9451000C
:100030000C9451000C9451000C9451000C945100FC
:100040000C9451000C9451000C9442020C945100F9
:100050000C9451000C9451000C9451000C945100DC
:100060000C9451000C94510011241FBECFEFD8E026
:10007000DEBFCDBF11E0A0E0B1E0EEEEFCE002C0DB
:1000800005900D92A236B107D9F721E0A2E6B1E0C2
:1000900001C01D92A836B207E1F70E94B6000C9489
:1000A00075060C940000ECE7F0E09081907F90835F
:1000B0009081892B8083EAE7F0E0808180648083EF
:1000C00080917A0086FDFCCF8091790090E00895C0
:1000D000ECE7F0E0108280818064808380818F77FC
:1000E0008083808180628083EAE7F0E010828081F3
:1000F00080688083808183608083EEE7F0E0808188
:100100008062808380818061808308958AB18E7F40
:100110008AB98AB182608AB9E0ECF0E0108280810D
:1001200082608083E1ECF0E01082808188698083C6
:10013000E2ECF0E010828081866080838FEC90E0BA
:100140009093C5008093C4000895AC0120E007C0DF
:100150009091C00095FFFCCF3093C6002F5FFA014D
:10016000E20FF11D30813111F3CF0895F8948AB177
:1001700080698AB984B1816084B98AB18B7F8AB978
:100180008BB184608BB984B18F7D84B985B1806275
:1001900085B987B18E7F87B988B1816088B987B109
:1001A0008D7F87B988B1826088B987B18B7F87B925
:1001B00088B1846088B982E08093690081E08DBB5A
:1001C0001CBA60E074E080E00E94B90260E074E074
:1001D00080E00E94CF0260E074E080E00E94AE0305
:1001E00060E074E080E00E94CC030E9468000E94FE
:1001F000860087E00E94530086E00E94530085E05D
:100200000E94530084E00E94530078948091000182
:10021000909101018130910509F04EC085B1816056
:1002200085B98BB18F778BB98BB18F7E8BB987E016
:100230000E9453000E94E5022FEF83EC99E02150C9
:1002400080409040E1F700C0000086E00E9453002B
:100250000E941A03EFEFF3EC29E0E150F040204058
:10026000E1F700C0000085E00E9453000E94EA030D
:100270008FEF93ECE9E081509040E040E1F700C05F
:10028000000084E00E9453000E942004FFEF23EC52
:1002900089E0F15020408040E1F700C000009FE776
:1002A000E8E3F1E09150E040F040E1F700C00000E9
:1002B00080E380930201AACF82309105D1F585B108
:1002C0008E7F85B98BB180688BB98BB18F7E8BB9EE
:1002D00083E091E00E94A50080910201813339F40E
:1002E0008FEF0E94E5028FEF0E941A038FCF80915B
:1002F0000201823339F480E00E94E50280E00E942E
:100300001A0384CF80910201833339F48FEF0E9466
:10031000EA038FEF0E94200479CF80910201843399
:1003200009F074CF80E00E94EA0380E00E9420047C
:100330006DCF8330910509F046C085B18E7F85B9B8
:100340008BB18F778BB98BB180618BB986E00E94BE
:100350005300EFE3FCE93197F1F700C000000E9481
:10036000E50287E00E945300EFE3FCE93197F1F7E3
:1003700000C000000E941A0385E00E945300C82FAD
:100380008FE39CE90197F1F700C000008C2F0E94D9
:10039000EA0384E00E945300EFE3FCE93197F1F7B0
:1003A00000C000000E942004FFE728E381E0F15034
:1003B00020408040E1F700C000006C2F83E090E017
:1003C0000E94670623CF049709F020CF85B18E7F66
:1003D00085B98BB180688BB98BB180618BB980E0B6
:1003E00090E00E945F06C82F8093630181E090E057
:1003F0000E945F068093650183E090E00E945F06A3
:100400008093620184E090E00E945F068093640123
:100410008C2F0E94E502809165010E941A03809151
:1004200062010E94EA03809164010E94EA03EECE19
:100430001F920F920FB60F9211242F938F939F93B9
:1004400080910001909101010196909301018093A8
:100450000001059734F081E090E0909301018093D2
:1004600000012FEF81EE94E0215080409040E1F7B1
:1004700000C000009F918F912F910F900FBE0F90A1
:100480001F9018951F920F920FB60F9211248F9301
:100490008091C600809302018091C00085FFFCCF4F
:1004A000809102018093C6008F910F900FBE0F9034
:1004B0001F9018954F925F926F927F92AF92BF926A
:1004C000CF92DF92EF92FF920F931F93CF93DF9320
:1004D000CDB7DEB728970FB6F894DEBF0FBECDBFFD
:1004E00029013A01ED82FE820F8318870E9456048B
:1004F00069837A838B839C83A6019501698D7A8DAC
:100500008B8D9C8D0E9456049B01AC0169817A8180
:100510008B819C810E94F20569837A838B839C8303
:10052000A3019201C801B7010E9456049B01AC01CE
:1005300069817A818B819C810E94C3049B01AC01FB
:10054000C601B5010E94570428960FB6F894DEBF85
:100550000FBECDBFDF91CF911F910F91FF90EF9014
:10056000DF90CF90BF90AF907F906F905F904F9053
:1005700008959AB190649AB9882321F084B5806C6B
:1005800084BD03C084B5806884BD84B5836084BDA8
:100590006115744019F485B5856085BD08959AB1DB
:1005A00090629AB9882321F084B5806384BD03C02A
:1005B00084B5806284BD84B5836084BD6115744058
:1005C00019F485B5856085BD0895AF92BF92CF922D
:1005D000DF92EF92FF920F931F93682F70E080E0FD
:1005E00090E00E94640522E42F9320E22F931F9253
:1005F0001F920F2EA12CB12CF0ECCF2EF0E4DF2EA9
:10060000F02DE12CF12C0FE713E420E030E0A901FC
:100610000E945A020F900F900F900F900E94350584
:1006200067BD1F910F91FF90EF90DF90CF90BF902B
:10063000AF900895AF92BF92CF92DF92EF92FF9268
:100640000F931F93682F70E080E090E00E94640594
:1006500022E42F9320E22F931F921F920F2EA12CA2
:10066000B12CF0ECCF2EF0E4DF2EF02DE12CF12CAC
:100670000FE713E420E030E0A9010E945A020F9036
:100680000F900F900F900E94350568BD1F910F913C
:10069000FF90EF90DF90CF90BF90AF9008954F9272
:1006A0005F926F927F92AF92BF92CF92DF92EF9262
:1006B000FF920F931F93CF93DF93CDB7DEB72897A9
:1006C0000FB6F894DEBF0FBECDBF29013A01ED820F
:1006D000FE820F8318870E94560469837A838B8376
:1006E0009C83A6019501698D7A8D8B8D9C8D0E94CE
:1006F00056049B01AC0169817A818B819C810E94A7
:10070000F20569837A838B839C83A3019201C801DC
:10071000B7010E9456049B01AC0169817A818B81EB
:100720009C810E94C3049B01AC01C601B5010E94DB
:10073000570428960FB6F894DEBF0FBECDBFDF91E9
:10074000CF911F910F91FF90EF90DF90CF90BF90CE
:10075000AF907F906F905F904F90089594B19860A4
:1007600094B9882331F0E0EBF0E08081806C8083E5
:1007700005C0E0EBF0E0808180688083E0EBF0E092
:100780008081836080836115744029F4E1EBF0E09F
:1007900080818560808308959AB198609AB9882392
:1007A00031F0E0EBF0E080818063808305C0E0EB16
:1007B000F0E0808180628083E0EBF0E08081836004
:1007C00080836115744029F4E1EBF0E0808185605D
:1007D00080830895AF92BF92CF92DF92EF92FF9203
:1007E0000F931F93682F70E080E090E00E946405F3
:1007F00022E42F9320E22F931F921F920F2EA12C01
:10080000B12CF0ECCF2EF0E4DF2EF02DE12CF12C0A
:100810000FE713E420E030E0A9010E944F030F909E
:100820000F900F900F900E9435056093B3001F91B9
:100830000F91FF90EF90DF90CF90BF90AF90089511
:10084000AF92BF92CF92DF92EF92FF920F931F93DE
:10085000682F70E080E090E00E94640522E42F930E
:1008600020E22F931F921F920F2EA12CB12CF0EC9F
:10087000CF2EF0E4DF2EF02DE12CF12C0FE713E466
:1008800020E030E0A9010E944F030F900F900F90DD
:100890000F900E9435056093B4001F910F91FF9057
:1008A000EF90DF90CF90BF90AF9008955058BB2746
:1008B000AA270E946E040C94B8050E94AA0538F07D
:1008C0000E94B10520F039F49F3F19F426F40C94EE
:1008D000A7050EF4E095E7FB0C94A105E92F0E9413
:1008E000C90558F3BA17620773078407950720F004
:1008F00079F4A6F50C94EB050EF4E0950B2EBA2FC7
:10090000A02D0B01B90190010C01CA01A001112415
:10091000FF27591B99F0593F50F4503E68F11A16C1
:10092000F040A22F232F342F4427585FF3CF469552
:1009300037952795A795F0405395C9F77EF41F1674
:10094000BA0B620B730B840BBAF09150A1F0FF0F3E
:10095000BB1F661F771F881FC2F70EC0BA0F621F2A
:10096000731F841F48F4879577956795B795F7951A
:100970009E3F08F0B0CF9395880F08F09927EE0FAF
:100980009795879508950E94D7040C94B8050E9406
:10099000B10558F00E94AA0540F029F45F3F29F004
:1009A0000C94A10551110C94EC050C94A7050E9420
:1009B000C90568F39923B1F3552391F3951B550BA2
:1009C000BB27AA2762177307840738F09F5F5F4F22
:1009D000220F331F441FAA1FA9F335D00E2E3AF061
:1009E000E0E832D091505040E695001CCAF72BD079
:1009F000FE2F29D0660F771F881FBB1F26173707CA
:100A00004807AB07B0E809F0BB0B802DBF01FF27FB
:100A100093585F4F3AF09E3F510578F00C94A10532
:100A20000C94EC055F3FE4F3983ED4F386957795FC
:100A30006795B795F7959F5FC9F7880F911D9695B4
:100A4000879597F90895E1E0660F771F881FBB1F10
:100A5000621773078407BA0720F0621B730B840BBD
:100A6000BA0BEE1F88F7E09508950E94D10588F033
:100A70009F5798F0B92F9927B751B0F0E1F0660F62
:100A8000771F881F991F1AF0BA95C9F714C0B130A3
:100A900091F00E94EB05B1E008950C94EB05672FEF
:100AA000782F8827B85F39F0B93FCCF386957795D2
:100AB0006795B395D9F73EF49095809570956195BB
:100AC0007F4F8F4F9F4F0895E89409C097FB3EF4E6
:100AD00090958095709561957F4F8F4F9F4F99238B
:100AE000A9F0F92F96E9BB279395F6958795779509
:100AF0006795B795F111F8CFFAF4BB0F11F460FFC9
:100B00001BC06F5F7F4F8F4F9F4F16C0882311F020
:100B100096E911C0772321F09EE8872F762F05C034
:100B2000662371F096E8862F70E060E02AF09A95CF
:100B3000660F771F881FDAF7880F9695879597F9C4
:100B4000089597F99F6780E870E060E008959FEF4F
:100B500080EC089500240A94161617061806090654
:100B6000089500240A941216130614060506089523
:100B7000092E0394000C11F4882352F0BB0F40F4AB
:100B8000BF2B11F460FF04C06F5F7F4F8F4F9F4FEB
:100B9000089557FD9058440F551F59F05F3F71F06D
:100BA0004795880F97FB991F61F09F3F79F08795D4
:100BB0000895121613061406551FF2CF4695F1DF5D
:100BC00008C0161617061806991FF1CF86957105ED
:100BD000610508940895E894BB2766277727CB0121
:100BE00097F908950E9405060C94B8050E94AA057D
:100BF00038F00E94B10520F0952311F00C94A10566
:100C00000C94A70511240C94EC050E94C90570F3FF
:100C1000959FC1F3950F50E0551F629FF001729FA1
:100C2000BB27F00DB11D639FAA27F00DB11DAA1FB0
:100C3000649F6627B00DA11D661F829F2227B00DFD
:100C4000A11D621F739FB00DA11D621F839FA00D88
:100C5000611D221F749F3327A00D611D231F849FD8
:100C6000600D211D822F762F6A2F11249F5750402F
:100C70009AF0F1F088234AF0EE0FFF1FBB1F661FAA
:100C8000771F881F91505040A9F79E3F510580F073
:100C90000C94A1050C94EC055F3FE4F3983ED4F36B
:100CA000869577956795B795F795E7959F5FC1F717
:100CB000FE2B880F911D9695879597F90895F999C0
:100CC000FECF92BD81BDF89A992780B50895262F51
:100CD000F999FECF1FBA92BD81BD20BD0FB6F89421
:0E0CE000FA9AF99A0FBE01960895F894FFCF84
:100CEE000100300A0A312E204F6A6F732061206C8A
:100CFE006120697A717569657264610A322E204FBE
:100D0E006A6F732061206C6120646572656368612F
:100D1E000A332E205061727061646F73206172729B
:100D2E006962610A342E205061727061646F7320A3
:100D3E006162616A6F0A53656C656363696F6E3ACF
:020D4E000000A3
:00000001FF
